:020000040800F2
:1000000000800120DD2700082D2800082D28000889
:100010002D2800082D2800082D28000800000000C9
:10002000000000000000000000000000A11D00080A
:100030002D280008000000000120000869200008A9
:10004000000000002D2800082D2800082D28000899
:100050002D2800082D2800082D2800082D2800082C
:100060002D2800082D2800082D2800082D2800081C
:100070002D2800082D2800082D2800082D2800080C
:100080002D2800082D2800082D2800080000000059
:10009000000000000000000000000000AD24000887
:1000A0002D2800082D2800082D2800082D280008DC
:1000B0002D2800082D2800082D2800082D280008CC
:1000C0002D2800082D2800082D2800082D280008BC
:1000D0002D2800082D2800082D2800080000000009
:1000E0002D2800082D2800082D28000800000000F9
:1000F0000000000000000000000000002D280008A3
:10010000000000002D2800082D2800082D280008D8
:1001100000000000000000000000000000000000DF
:100120002D2800082D2800082D2800082D2800085B
:100130002D28000800000000000000000000000062
:100140000000000000000000000000002D28000852
:100150002D2800082D2800082D2800082D2800082B
:100160002D2800082D2800080000000000000000D5
:10017000000000000000000000000000000000007F
:10018000000000000000000000000000000000006F
:040190002D2800080E
:1001A00010B5054C237833B9044B13B10448AFF3B1
:1001B00000800123237010BD140000200000000007
:1001C000F42F000808B5034B1BB103490348AFF3F4
:1001D000008008BD0000000018000020F42F000877
:1001E00080B483B000AF78607B6803F108027B685D
:1001F0005A607B684FF0FF329A607B6803F1080217
:100200007B68DA607B6803F108027B681A617B68AF
:1002100000221A6000BF0C37BD465DF8047B7047B2
:1002200080B483B000AF78607B6800221A6100BFA1
:100230000C37BD465DF8047B704780B485B000AFD5
:10024000786039603B681B68BB60BB68B3F1FF3FF7
:1002500003D17B681B69FB600CE07B680833FB60A3
:1002600002E0FB685B68FB60FB685B681B68BA6860
:100270009A42F6D2FB685A683B685A603B685B68F2
:100280003A689A603B68FA689A60FB683A685A6014
:100290003B687A681A617B681B685A1C7B681A6025
:1002A00000BF1437BD465DF8047B704780B485B04D
:1002B00000AF78607B681B69FB607B685B687A686D
:1002C00092689A607B689B687A6852685A60FB689B
:1002D0005B687A689A4203D17B689A68FB685A60C7
:1002E0007B6800221A61FB681B685A1EFB681A6053
:1002F000FB681B6818461437BD465DF8047B7047E1
:1003000080B586B000AF7860396001237B617B687F
:100310003B613B69002B0BD14FF0500383F31188F5
:10032000BFF36F8FBFF34F8FFB6000BF00BFFDE7D0
:100330003B69002B5DD03B69DB6B002B59D03B69DF
:100340001A6C3B69DB6B0021A3FB0223002B00D05E
:1003500001210B46002B4CD101F0F0FD3B691A68DE
:100360003B69DB6B3969096C01FB03F31A443B6998
:100370009A603B6900229A633B691A683B695A603C
:100380003B691A683B69DB6B013B3969096C01FB0E
:1003900003F31A443B69DA603B69FF2283F8442087
:1003A0003B69FF2283F845203B68002B14D13B6951
:1003B0001B69002B1AD03B691033184600F050FF20
:1003C0000346002B12D0164B4FF080521A60BFF339
:1003D0004F8FBFF36F8F09E03B6910331846FFF76B
:1003E000FFFE3B6924331846FFF7FAFE01F0D8FD03
:1003F00001E000237B617B69002B0BD14FF05003A0
:1004000083F31188BFF36F8FBFF34F8FBB6000BFC3
:1004100000BFFDE77B6918461837BD4680BD00BFA9
:1004200004ED00E080B58AB002AFF860B960134611
:10043000FB710023FB61FB68002B2ED00021BA6802
:10044000FB68A3FB0223002B00D001210B46002BED
:1004500023D1FB68BA6802FB03F313F1510F1CD8D8
:10046000FB68BA6802FB03F3BB61BB6950331846F3
:1004700001F04CFEF861FB69002B1DD0FB697B612C
:100480007B6950337B61FA79FB69009313467A6983
:10049000B968F86800F015F80EE0FB69002B0BD185
:1004A0004FF0500383F31188BFF36F8FBFF34F8F6B
:1004B0003B6100BF00BFFDE7FB6918462037BD4622
:1004C00080BD80B584B000AFF860B9607A60FB7021
:1004D000BB68002B03D1BB69BA691A6002E0BB6933
:1004E0007A681A60BB69FA68DA63BB69BA681A6429
:1004F0000121B869FFF704FFBB69FA7883F84C2043
:1005000000BF1037BD4680BD80B58CB000AFF8602D
:10051000B9607A600023FB62FB68BB62BB6A002B98
:100520000BD14FF0500383F31188BFF36F8FBFF3EC
:100530004F8F3B6200BF00BFFDE7BB68002B03D1BC
:10054000BB6A1B6C002B01D1012300E00023002BB0
:100550000BD14FF0500383F31188BFF36F8FBFF3BC
:100560004F8FFB6100BF00BFFDE701F08DF8034630
:10057000002B02D17B68002B01D1012300E0002376
:10058000002B0BD14FF0500383F31188BFF36F8F13
:10059000BFF34F8FBB6100BF00BFFDE701F0CEFC92
:1005A000BB6A9B6B7B627B6A002B1FD0B968B86A01
:1005B00000F08CF87B6A5A1EBB6A9A63BB6A1B699F
:1005C000002B0FD0BB6A1033184600F049FE0346DB
:1005D000002B07D03C4B4FF080521A60BFF34F8F77
:1005E000BFF36F8F01F0DCFC012369E07B68002B17
:1005F00003D101F0D5FC002362E0FB6A002B06D199
:1006000007F11003184600F003FF0123FB6201F01D
:10061000C7FC00F02BFB01F091FCBB6A93F844305F
:100620005BB2B3F1FF3F03D1BB6A002283F84420E1
:10063000BB6A93F845305BB2B3F1FF3F03D1BB6AAD
:10064000002283F8452001F0ABFC3A1D07F11003AE
:100650001146184600F0F2FE0346002B23D1B86A7B
:1006600000F0ACF80346002B17D0BB6A24337A683D
:100670001146184600F088FDB86A00F04DF800F009
:1006800003FB0346002B89D10F4B4FF080521A60B9
:10069000BFF34F8FBFF36F8F80E7B86A00F03CF86D
:1006A00000F0F2FA7AE7B86A00F036F800F0ECFAF7
:1006B000B86A00F083F80346002B3FF46FAF0023C5
:1006C00018463037BD4680BD04ED00E080B582B0ED
:1006D00000AF786039607B681B6C002B18D07B689A
:1006E000DA687B681B6C1A447B68DA607B68DA68BE
:1006F0007B689B689A4203D37B681A687B68DA60E0
:100700007B68D9687B681B6C1A46386802F064FC09
:1007100000BF0837BD4680BD80B584B000AF7860AB
:1007200001F00CFC7B6893F84530FB7311E07B68AB
:100730005B6A002B12D07B682433184600F090FDD2
:100740000346002B01D000F0E1FEFB7B013BDBB256
:10075000FB7397F90F30002BE9DC00E000BF7B68EA
:10076000FF2283F8452001F01BFC01F0E7FB7B68CA
:1007700093F84430BB7311E07B681B69002B12D0E7
:100780007B681033184600F06BFD0346002B01D048
:1007900000F0BCFEBB7B013BDBB2BB7397F90E30B4
:1007A000002BE9DC00E000BF7B68FF2283F84420D7
:1007B00001F0F6FB00BF1037BD4680BD80B584B0A8
:1007C00000AF786001F0BAFB7B689B6B002B02D115
:1007D0000123FB6001E00023FB6001F0E1FBFB680B
:1007E00018461037BD4680BD80B487B000AF786032
:1007F000396000233B617B68002B0BD14FF0500325
:1008000083F31188BFF36F8FBFF34F8FFB6000BF7F
:1008100000BFFDE73B68002B24D000237B611EE076
:10082000184A7B69DB0013445B687A689A4205D1F9
:100830007B69DB00134A13443B6113E03B69002BE7
:100840000AD1104A7B6952F83330002B04D17B69FE
:10085000DB000C4A13443B617B6901337B617B699C
:10086000072BDDD93B69002B05D03B693A681A603C
:100870003B697A685A6000BF1C37BD465DF8047B4F
:10088000704700BF3000002080B586B000AFF86030
:10089000B9607A60FB687B6101F050FB7B6993F87B
:1008A00044305BB2B3F1FF3F03D17B69002283F890
:1008B00044207B6993F845305BB2B3F1FF3F03D12D
:1008C0007B69002283F8452001F06AFB7B699B6B02
:1008D000002B06D17B6924337A68B968184600F08A
:1008E00079FC7869FFF718FF00BF1837BD4680BD57
:1008F00080B58CB004AFF860B9603B601346FB80F4
:10090000FB889B00184601F001FC78617B69002B95
:1009100013D0582001F0FAFBF861FB69002B08D0D6
:1009200058220021F86902F02AFBFB697A691A63F0
:1009300005E0786901F0A6FC01E00023FB61FB699A
:10094000002B13D0FA8800230393FB690293FB6A00
:100950000193BB6A00933B68B968F86800F00EF831
:10096000F86900F09BF80123BB6102E04FF0FF3310
:10097000BB61BB6918462037BD4680BD80B588B0D5
:1009800000AFF860B9607A603B603B6B186B7B68C6
:100990009B001A46A52102F0F2FA3B6B1A6B7B68AA
:1009A00003F18043013B9B001344BB61BB6923F00F
:1009B0000703BB61BB6903F00703002B0BD04FF0AB
:1009C000500383F31188BFF36F8FBFF34F8F7B61A9
:1009D00000BF00BFFDE7BB68002B1ED00023FB61FA
:1009E00012E0BA68FB69134419783A6BFB69134447
:1009F00034330A461A70BA68FB6913441B78002B1B
:100A000006D0FB690133FB61FB69092BE9D900E0E2
:100A100000BF3B6B002283F83D20BB6A042B0BD93F
:100A20004FF0500383F31188BFF36F8FBFF34F8FE5
:100A30003B6100BF00BFFDE7BB6A042B01D9042363
:100A4000BB623B6BBA6ADA623B6BBA6A9A643B6B15
:100A500004331846FFF7E4FB3B6B18331846FFF7E7
:100A6000DFFB3B6B3A6B1A61BB6AC3F105023B6B60
:100A70009A613B6B3A6B5A623A68F968B86901F05F
:100A80002DF902463B6B1A60FB6A002B02D0FB6A11
:100A90003A6B1A6000BF2037BD4680BD80B584B078
:100AA00000AF786001F04AFA404B1B6801333F4ABF
:100AB00013603F4B1B68002B09D13D4A7B681360D4
:100AC0003A4B1B68012B10D100F044FD0DE0394B6F
:100AD0001B68002B09D1364B1B68DA6A7B68DB6A1E
:100AE0009A4202D8324A7B681360334B1B68013349
:100AF000314A1360304B1A687B681A647B68DB6A82
:100B000001229A402D4B1B6813432C4A13607B68CB
:100B1000DA6A2B4913469B0013449B000B440433B1
:100B20001B68FB607B68FA689A60FB689A687B6860
:100B3000DA60FB689B687A6804325A607B681A1D29
:100B4000FB689A607B68DA6A13469B0013449B003B
:100B50001B4A1A447B685A617B68DA6A1849134653
:100B60009B0013449B000B441B68591C14481346FC
:100B70009B0013449B000344196001F011FA0D4BD4
:100B80001B68002B0ED00A4B1B68DA6A7B68DB6A95
:100B90009A4207D20B4B4FF080521A60BFF34F8F2F
:100BA000BFF36F8F00BF1037BD4680BD48010020E6
:100BB000700000205401002064010020500100203A
:100BC0007400002004ED00E080B586B002AF204B39
:100BD000019300230093002382221E491E48FFF741
:100BE00087FEF860FB68012B02D100F0EBFDF86096
:100BF000FB68012B16D14FF0500383F31188BFF32C
:100C00006F8FBFF34F8FBB6000BF144B4FF0FF32AD
:100C10001A60134B01221A60124B00221A6001F075
:100C2000E9F80FE0FB68B3F1FF3F0BD14FF0500341
:100C300083F31188BFF36F8FBFF34F8F7B6000BFCB
:100C400000BFFDE7084B1B6800BF1037BD4680BDE5
:100C50006C0100200C3000082515000868010020F8
:100C6000540100204C0100200000002080B400AF9F
:100C7000044B1B680133034A136000BFBD465DF897
:100C8000047B70477001002080B588B000AF00235E
:100C9000FB610023BB61714B1B68002B0BD14FF034
:100CA000500383F31188BFF36F8FBFF34F8F7B60C7
:100CB00000BF00BFFDE701F041F9684B1B68013B35
:100CC000664A1360654B1B68002B40F0C080644B84
:100CD0001B68002B00F0BB808AE0624BDB68DB689E
:100CE000FB61FB699B6A3B61FB69DB69FA69126A1C
:100CF0009A60FB691B6AFA69D2695A603B695A6853
:100D0000FB6918339A4203D1FB691A6A3B695A603E
:100D1000FB6900229A623B691B685A1E3B691A6094
:100D2000FB695B69FB60FB699B68FA69D2689A6042
:100D3000FB69DB68FA6992685A60FB685A68FB696C
:100D400004339A4203D1FB69DA68FB685A60FB6995
:100D500000225A61FB681B685A1EFB681A60FB6917
:100D6000DB6A01229A40404B1B6813433E4A1360E2
:100D7000FB69DA6A3D4913469B0013449B000B4410
:100D800004331B68BB60FB69BA689A60BB689A68E9
:100D9000FB69DA60BB689B68FA6904325A60FB69D8
:100DA0001A1DBB689A60FB69DA6A13469B001344FC
:100DB0009B002E4A1A44FB695A61FB69DA6A2B4987
:100DC00013469B0013449B000B441B68591C274887
:100DD00013469B0013449B0003441960FB69DA6AC5
:100DE000234B1B68DB6A9A4202D3224B01221A6012
:100DF0001C4B1B68002B7FF470AFFB69002B01D0EC
:100E000000F026FC1C4B1B687B617B69002B10D01B
:100E100000F046F80346002B02D0164B01221A6060
:100E20007B69013B7B617B69002BF1D1124B002276
:100E30001A60104B1B68002B09D00123BB610F4BBC
:100E40004FF080521A60BFF34F8FBFF36F8F01F0E6
:100E5000A7F8BB6918462037BD4680BD7001002049
:100E600048010020080100205001002074000020EB
:100E7000700000205C0100205801002004ED00E01B
:100E800080B483B000AF054B1B687B607B6818465D
:100E90000C37BD465DF8047B704700BF4C01002055
:100EA00080B58AB000AF00237B627E4B1B68002BAD
:100EB00040F0ED807C4B1B6801333B627A4A3B6A11
:100EC00013603B6A002B21D1784B1B681B68002BF9
:100ED0000BD04FF0500383F31188BFF36F8FBFF334
:100EE0004F8F7B6000BF00BFFDE7704B1B68FB614D
:100EF0006F4B1B686D4A13606D4AFB6913606D4B45
:100F00001B6801336B4A136000F0A2FB6A4B1B683D
:100F10003A6A9A42C0F0A680644B1B681B68002B9B
:100F200004D1654B4FF0FF321A609BE05F4B1B68AA
:100F3000DB68DB68BB61BB695B687B613A6A7B69C4
:100F40009A4203D25C4A7B6913608BE0BB695B69A0
:100F50003B61BB699B68BA69D2689A60BB69DB6810
:100F6000BA6992685A603B695A68BB6904339A420D
:100F700003D1BB69DA683B695A60BB6900225A61D8
:100F80003B691B685A1E3B691A60BB699B6A002B50
:100F90001ED0BB699B6AFB60BB69DB69BA69126AD8
:100FA0009A60BB691B6ABA69D2695A60FB685A6861
:100FB000BB6918339A4203D1BB691A6AFB685A604D
:100FC000BB6900229A62FB681B685A1EFB681A60A4
:100FD000BB69DB6A01229A40384B1B681343374ACE
:100FE0001360BB69DA6A364913469B0013449B00C1
:100FF0000B4404331B68BB60BB69BA689A60BB686A
:101000009A68BB69DA60BB689B68BA6904325A6047
:10101000BB691A1DBB689A60BB69DA6A13469B00FC
:1010200013449B00264A1A44BB695A61BB69DA6AB9
:10103000234913469B0013449B000B441B68591C17
:101040001F4813469B0013449B0003441960BB696F
:10105000DA6A1C4B1B68DB6A9A427FF65DAF01239C
:101060007B6259E7174B1B68DA6A154913469B00E8
:1010700013449B000B441B68012B01D901237B62A5
:10108000114B1B68002B07D001237B6204E00F4B40
:101090001B6801330D4A13607B6A18462837BD462A
:1010A00080BD00BF700100204C0100200001002025
:1010B0000401002060010020680100205001002090
:1010C00074000020700000205C0100205801002006
:1010D00080B487B000AF274B1B68002B03D0264B92
:1010E00001221A6040E0244B00221A60234B1B6847
:1010F000FB60FB68B3FA83F3FB72FB7AC3F11F0357
:101100007B611F497A6913469B0013449B000B4483
:101110001B68002B0BD14FF0500383F31188BFF3F2
:101120006F8FBFF34F8F7B6000BF00BFFDE77A6911
:1011300013469B0013449B00114A13443B613B69D7
:101140005B685A683B695A603B695A683B69083377
:101150009A4204D13B695B685A683B695A603B69B3
:101160005B68DB68074A136000BF1C37BD465DF84B
:10117000047B7047700100205C01002050010020BA
:10118000740000207000002080B584B000AF78604B
:1011900039607B68002B0BD14FF0500383F311882B
:1011A000BFF36F8FBFF34F8FFB6000BF00BFFDE742
:1011B000074B1B68183319467868FFF73EF8012182
:1011C000386800F07FFA00BF1037BD4680BD00BF11
:1011D0007000002080B586B000AFF860B9607A601A
:1011E000FB68002B0BD14FF0500383F31188BFF342
:1011F0006F8FBFF34F8F3B6100BF00BFFDE7FB6800
:101200005B687B61154B1B687A69DA61134B1B685D
:101210007A6992681A62114B1A687B699B68183266
:101220005A600E4B1B6803F118027B699A600B4BE6
:101230001B68FA689A62FB681B685A1CFB681A6094
:101240007B68002B02D04FF0FF33BB607968B86831
:1012500000F038FA00BF1837BD4680BD700000208E
:1012600080B48BB000AF78607B68DB68DB683B6282
:101270003B6A002B0BD14FF0500383F31188BFF36F
:101280006F8FBFF34F8FFB6000BF00BFFDE73B6A6E
:101290009B6AFB613B6ADB693A6A126A9A603B6A45
:1012A0001B6A3A6AD2695A60FB695A683B6A18330A
:1012B0009A4203D13B6A1A6AFB695A603B6A002270
:1012C0009A62FB691B685A1EFB691A604A4B1B68CD
:1012D000002B5ED13B6A5B697B613B6A9B683A6A23
:1012E000D2689A603B6ADB683A6A92685A607B69A6
:1012F0005A683B6A04339A4203D13B6ADA687B69D5
:101300005A603B6A00225A617B691B685A1E7B69DE
:101310001A603B6ADB6A01229A40384B1B68134310
:10132000364A13603B6ADA6A354913469B00134418
:101330009B000B4404331B683B613B6A3A699A602B
:101340003B699A683B6ADA603B699B683A6A043297
:101350005A603B6A1A1D3B699A603B6ADA6A134617
:101360009B0013449B00264A1A443B6A5A613B6A1D
:10137000DA6A234913469B0013449B000B441B6805
:10138000591C1F4813469B0013449B0003441960DB
:101390001BE01C4B5B68BB613B6ABA69DA61BB69E5
:1013A0009A683B6A1A62BB699B683A6A18325A604B
:1013B0003B6A03F11802BB699A603B6A114A9A6260
:1013C000104B1B6801330F4A13603B6ADA6A0E4BFD
:1013D0001B68DB6A9A4205D901237B620B4B012211
:1013E0001A6001E000237B627B6A18462C37BD46F9
:1013F0005DF8047B704700BF7001002050010020A1
:101400007400002008010020700000205C01002012
:1014100080B483B000AF7860064B1A687B681A60AE
:10142000054B1A687B685A6000BF0C37BD465DF8F3
:10143000047B7047600100204C01002080B588B01B
:1014400000AF786039607B68002B0BD14FF0500300
:1014500083F31188BFF36F8FBFF34F8F3B6100BFE2
:1014600000BFFDE73B68002B0BD14FF0500383F327
:101470001188BFF36F8FBFF34F8FFB6000BF00BFBA
:10148000FDE700F05BFD1F4B1B68BB617B685B6881
:10149000BA69D31A7B613B681B68B3F1FF3F02D185
:1014A0000023FB6126E07B681A68174B1B689A4291
:1014B0000AD07B685B68BA699A4205D30123FB6155
:1014C0003B6800221A6015E03B681B687A699A4203
:1014D0000BD23B681A687B69D21A3B681A6078683D
:1014E000FFF796FF0023FB6104E03B6800221A60CF
:1014F0000123FB6100F054FDFB6918462037BD460F
:1015000080BD00BF4C0100206001002080B400AF0E
:10151000034B01221A6000BFBD465DF8047B704793
:101520005C01002080B582B000AF786000F052F816
:10153000064B1B68012BF9D9054B4FF080521A60FE
:10154000BFF34F8FBFF36F8FF0E700BF7400002031
:1015500004ED00E080B582B000AF00237B600CE0BA
:101560007A6813469B0013449B00124A13441846A2
:10157000FEF736FE7B6801337B607B68042BEFD976
:101580000D48FEF72DFE0D48FEF72AFE0C48FEF72B
:1015900027FE0C48FEF724FE0B48FEF721FE0B4BFE
:1015A000054A1A600A4B054A1A6000BF0837BD4653
:1015B00080BD00BF74000020D8000020EC00002097
:1015C000080100201C01002034010020000100203F
:1015D0000401002080B582B000AF19E000F0AEFC3D
:1015E000104BDB68DB687B607B6804331846FEF7D2
:1015F0005DFE0D4B1B68013B0B4A13600B4B1B68D8
:10160000013B0A4A136000F0CBFC786800F010F848
:10161000064B1B68002BE1D100BF00BF0837BD4659
:1016200080BD00BF1C0100204801002030010020C7
:1016300080B582B000AF78607B681B6B184600F005
:1016400021FE786800F01EFE00BF0837BD4680BD51
:1016500080B400AF0A4B1B681B68002B04D1094BF8
:101660004FF0FF321A6005E0054B1B68DB681B6812
:10167000044A136000BFBD465DF8047B704700BF9D
:10168000000100206801002080B483B000AF0B4B44
:101690001B68002B02D101237B6008E0084B1B680C
:1016A000002B02D102237B6001E000237B607B687A
:1016B00018460C37BD465DF8047B70475401002086
:1016C0007001002080B586B000AF78603960364B7D
:1016D0001B687B61354B1B6804331846FEF7E6FD3B
:1016E0000346002B0BD1314B1B68DB6A012202FA47
:1016F00003F3DA432E4B1B6813402D4A13607B68BB
:10170000B3F1FF3F24D13B68002B21D0294B5B680C
:101710003B61264B1B683A699A60244B1B683A6907
:101720009268DA60214B1A683B699B6804325A6000
:101730001E4B1B681A1D3B699A601C4B1B681D4A97
:101740005A611C4B1B6801331A4A136000BF26E024
:101750007A697B681344FB60144B1B68FA685A6013
:10176000FA687B699A4209D2134B1A680F4B1B68BF
:10177000043319461046FEF760FD10E00F4B1A685F
:101780000A4B1B68043319461046FEF756FD0C4BF6
:101790001B68FA689A4202D2094AFB68136000BFCC
:1017A0001837BD4680BD00BF4C01002070000020EE
:1017B000500100203401002004010020000100201D
:1017C0006801002080B584B002AF00237B6000F088
:1017D0004FFA124B1B68002B0BD0114B01930223C5
:1017E000009300234FF482720E490F48FFF780F8F0
:1017F00078607B68002B0BD14FF0500383F3118886
:10180000BFF36F8FBFF34F8F3B6000BF00BFFDE79B
:101810007B6818460837BD4680BD00BFA401002084
:10182000A801002014300008D118000880B584B049
:1018300000AFF860B9607A6008E0FB689B69BA683D
:101840001344BB60FB681B6AF8689847FB689A6999
:10185000BB68D118BB687A68F86800F0DFF8034607
:10186000002BEAD100BF00BF1037BD4680BD00008D
:1018700080B584B000AF78603960144B1B68DB68BA
:10188000DB68FB60FB6804331846FEF70FFDFB685E
:1018900093F8283003F00403002B05D03A687968E8
:1018A000F868FFF7C3FF08E0FB6893F8283023F0DF
:1018B0000103DAB2FB6883F82820FB681B6AF8682A
:1018C000984700BF1037BD4680BD00BF9C01002077
:1018D00080B584B000AF786007F10803184600F0C7
:1018E00059F8F860BB681946F86800F005F800F090
:1018F000D7F800BFF0E7000080B584B000AF786093
:101900003960FFF7B3F907F10803184600F066F8ED
:10191000F860BB68002B30D13B68002B0AD17A6895
:10192000FB689A4206D8FFF7AFF9F9687868FFF7C5
:101930009FFF24E03B68002B08D0134B1B681B68FB
:10194000002B01D1012300E000233B600F4B1868FE
:101950007A68FB68D31A3A681946FEF795FFFFF7D5
:1019600093F90346002B0AD1094B4FF080521A60BD
:10197000BFF34F8FBFF36F8F01E0FFF785F900BF13
:101980001037BD4680BD00BFA0010020A40100208B
:1019900004ED00E080B485B000AF78600E4B1B68AA
:1019A0001B68002B01D1012200E000227B681A6035
:1019B0007B681B68002B05D1074B1B68DB681B6825
:1019C000FB6001E00023FB60FB6818461437BD464E
:1019D0005DF8047B704700BF9C01002080B584B097
:1019E00000AF7860FFF74CFAF8600B4B1B68FA68A1
:1019F0009A4205D200F016F97B6801221A6002E0D3
:101A00007B6800221A60044AFB681360FB68184672
:101A10001037BD4680BD00BFAC01002080B586B048
:101A200000AFF860B9607A603B6000237B61FB68BF
:101A3000BA685A60FB68FA681A61BA687B689A42A9
:101A400012D87A683B68D21AFB689B699A4202D323
:101A500001237B611BE0104B1A68FB6804331946B5
:101A60001046FEF7EAFB12E07A683B689A4206D21B
:101A7000BA683B689A4202D301237B6107E0074BB7
:101A80001A68FB68043319461046FEF7D6FB7B69DB
:101A900018461837BD4680BDA00100209C010020DB
:101AA00080B588B000AFA9E0BB68002BC0F2A6806B
:101AB0003B69FB61FB695B69002B04D0FB69043364
:101AC0001846FEF7F3FB3B1D1846FFF787FFB8618A
:101AD000BB68013B082B00F28E8001A252F823F074
:101AE000051B0008051B00086D1B0008811B000872
:101AF000CD1B0008051B0008051B00086D1B000816
:101B0000811B0008FB6993F8283043F00103DAB227
:101B1000FB6983F82820FA68FB699B69D118FB6888
:101B2000BA69F869FFF77AFF0346002B65D0FB69B5
:101B300093F8283003F00403002B09D0FA68FB69FE
:101B40009B691344BA691946F869FFF76FFE08E00C
:101B5000FB6993F8283023F00103DAB2FB6983F8BC
:101B60002820FB691B6AF869984746E0FB6993F8EF
:101B7000283023F00103DAB2FB6983F828203DE026
:101B8000FB6993F8283043F00103DAB2FB6983F86C
:101B90002820FA68FB699A61FB699B69002B0BD1CD
:101BA0004FF0500383F31188BFF36F8FBFF34F8F54
:101BB0007B6100BF00BFFDE7FB699A69BB69D11873
:101BC000BB69BA69F869FFF729FF17E0FB6993F869
:101BD000283003F00203002B03D1F86900F052FB18
:101BE0000CE0FB6993F8283023F00103DAB2FB69BB
:101BF00083F8282002E000BF00E000BF084B1B680C
:101C000007F1080100221846FEF77EFC0346002B70
:101C10007FF44AAF00BF00BF2037BD4680BD00BF84
:101C2000A401002080B582B000AF09E00E4B1B6814
:101C3000DB681B683B604FF0FF313868FFF718FE28
:101C4000094B1B681B68002BF0D1074B1B687B609E
:101C5000064B1B68044A1360044A7B68136000BF8C
:101C60000837BD4680BD00BF9C010020A0010020B8
:101C700080B500AF00F062F9124B1B68002B1DD13C
:101C80001148FEF7ADFA1148FEF7AAFA104B0E4ABA
:101C90001A60104B0D4A1A6000220C210A20FEF730
:101CA000C1FB0346074A1360064B1B68002B05D097
:101CB000044B1B6808491846FEF796FD00F070F9C2
:101CC00000BF80BDA4010020740100208801002015
:101CD0009C010020A00100201C30000880B485B0C9
:101CE00000AFF860B9607A60FB68043BFB60FB689A
:101CF0004FF080721A60FB68043BFB60BB6823F006
:101D00000102FB681A60FB68043BFB600C4AFB683D
:101D10001A60FB68143BFB607A68FB681A60FB681A
:101D2000043BFB60FB686FF002021A60FB68203B1B
:101D3000FB60FB6818461437BD465DF8047B7047AE
:101D4000451D000880B485B000AF00237B60134BB5
:101D50001B68B3F1FF3F0BD04FF0500383F31188A2
:101D6000BFF36F8FBFF34F8FFB6000BF00BFFDE776
:101D70004FF0500383F31188BFF36F8FBFF34F8F82
:101D8000BB6000BF00BF7B68002BFCD000BF00BF62
:101D90001437BD465DF8047B704700BF0400002087
:101DA000074B19680868B0E8F04F80F30988BFF363
:101DB0006F8F4FF0000080F311887047AFF3008001
:101DC0007000002000BF00BF08480068006880F372
:101DD00008884FF0000080F3148862B661B6BFF344
:101DE0004F8FBFF36F8F00DF00BF000008ED00E0F2
:101DF00000BF00BF80B586B000AF474B1B68474AA5
:101E000093420BD14FF0500383F31188BFF36F8FD0
:101E1000BFF34F8F3B6100BF00BFFDE73E4B1B6828
:101E20003F4A93420BD14FF0500383F31188BFF325
:101E30006F8FBFF34F8FFB6000BF00BFFDE7394BD3
:101E40007B617B691B78DBB27B607B69FF221A7048
:101E50007B691B78DBB2FB70FB78DBB203F05003CD
:101E6000DAB2314B1A70314B07221A6009E02F4B5E
:101E70001B68013B2D4A1360FB78DBB25B00DBB2D1
:101E8000FB70FB78DBB203F08003802BEFD0274B95
:101E90001B68C3F10703042B0BD04FF0500383F3EF
:101EA0001188BFF36F8FBFF34F8FBB6000BF00BFC0
:101EB000FDE71E4B1B681B021C4A13601B4B1B6873
:101EC00003F4E063194A13607B68DAB27B691A7025
:101ED000174B1B68164A43F470031360144B1B68BE
:101EE000134A43F07043136000F0E0F8114B0022F6
:101EF0001A6000F0FFF8104B1B680F4A43F0404394
:101F00001360FFF761FFFFF7E3F8FFF71BFF002304
:101F100018461837BD4680BD00ED00E071C20F4184
:101F200070C20F4100E400E0B0010020B4010020C5
:101F300020ED00E00400002034EF00E080B483B026
:101F400000AF4FF0500383F31188BFF36F8FBFF3DF
:101F50004F8F7B6000BF104B1B6801330E4A13602C
:101F60000D4B1B68012B10D10C4B1B68DBB2002BF7
:101F70000BD04FF0500383F31188BFF36F8FBFF383
:101F80004F8F3B6000BF00BFFDE700BF0C37BD4671
:101F90005DF8047B704700BF0400002004ED00E002
:101FA00080B483B000AF124B1B68002B0BD14FF0F5
:101FB000500383F31188BFF36F8FBFF34F8F7B60A4
:101FC00000BF00BFFDE70A4B1B68013B084A1360D6
:101FD000074B1B68002B05D100233B603B6883F354
:101FE000118800BF00BF0C37BD465DF8047B704709
:101FF00004000020000000000000000000000000BD
:10200000EFF30980BFF36F8F154B1A681EF0100FA6
:1020100008BF20ED108A20E9F04F10602DE909007B
:102020004FF0500080F31188BFF34F8FBFF36F8FD5
:10203000FFF74EF84FF0000080F3118809BC1968D3
:102040000868B0E8F04F1EF0100F08BFB0EC108A1F
:1020500080F30988BFF36F8F704700BFAFF3008034
:102060007000002000BF00BF80B582B000AF4FF00D
:10207000500383F31188BFF36F8FBFF34F8F7B60E3
:1020800000BFFEF70DFF0346002B03D0064B4FF0B9
:1020900080521A6000233B603B6883F3118800BFC5
:1020A00000BF0837BD4680BD04ED00E080B400AF3E
:1020B0000B4B00221A600B4B00221A600A4B1B6864
:1020C0000A4AA2FB03239B09094A013B1360044B04
:1020D00007221A6000BFBD465DF8047B704700BF51
:1020E00010E000E018E000E010000020D34D621086
:1020F00014E000E0DFF80C00016841F470010160B9
:102100007047000088ED00E000BF00BF80B58AB0D6
:1021100000AF78600023FB61FEF7A8FD544B1B68FD
:10212000002B01D100F00CF97B68002B12D00822A3
:102130007B6803F00703D31A0833BB61BB69DB4339
:102140007A689A4204D87A68BB6913447B6001E0DC
:1021500000237B607B68002B71DB7B68002B6ED0DB
:10216000444B1B687A689A4269D8434B3B62424BA6
:102170001B687B6204E07B6A3B627B6A1B687B6254
:102180007B6A5B687A689A4203D97B6A1B68002B7A
:10219000F1D1374B1B687A6A9A4250D03B6A1B6870
:1021A00008221344FB617B6A1A683B6A1A607B6AE7
:1021B0005A687B68D21A08235B009A4220D97A6A4F
:1021C0007B6813447B617B6903F00703002B0BD012
:1021D0004FF0500383F31188BFF36F8FBFF34F8F1E
:1021E0003B6100BF00BFFDE77B6A5A687B68D21A7B
:1021F0007B695A607B6A7A685A60786900F0FCF8FB
:102200001C4B1A687B6A5B68D31A1A4A1360194B15
:102210001A681A4B1B689A4203D2164B1B68174A5E
:1022200013607B6A5B6843F000427B6A5A607B6A9A
:1022300000221A60124B1B680133114A1360FEF72B
:1022400023FDFB6903F00703002B0BD04FF0500375
:1022500083F31188BFF36F8FBFF34F8FFB6000BF15
:1022600000BFFDE7FB6918462837BD4680BD00BFAB
:10227000C02D0120C42D0120B82D0120C82D012022
:10228000CC2D012080B586B000AF78607B687B6183
:102290007B68002B4BD008235B427A6913447B6137
:1022A0007B693B613B695B68002B0BDB4FF05003A4
:1022B00083F31188BFF36F8FBFF34F8FFB6000BFB5
:1022C00000BFFDE73B691B68002B0BD04FF05003AC
:1022D00083F31188BFF36F8FBFF34F8FBB6000BFD5
:1022E00000BFFDE73B695B68DB0F03F00103DBB276
:1022F000002B1CD03B691B68002B18D13B695B6825
:1023000023F000423B695A60FEF7B0FC3B695A6813
:10231000094B1B681344084A1360386900F06CF8D5
:10232000064B1B680133054A1360FEF7ADFC00BF86
:102330001837BD4680BD00BFC42D0120D02D01201F
:1023400080B485B000AF4FF49633BB60254BFB6083
:10235000FB6803F00703002B0CD0FB680733FB601E
:10236000FB6823F00703FB60BA68FB68D31A1D4AB9
:102370001344BB60FB687B601B4A7B6813601A4B8D
:1023800000225A607B68BA681344FB600822FB682D
:102390009B1AFB60FB6823F00703FB60FB68134A92
:1023A0001360124B1B6800225A60104B1B680022FE
:1023B0001A607B683B603B68FA68D21A3B685A60D7
:1023C0000A4B1A683B681A603B685B68084A1360EE
:1023D0003B685B68074A136000BF1437BD465DF871
:1023E000047B7047B8010020B82D0120C02D0120CA
:1023F000C82D0120C42D012080B485B000AF7860C5
:10240000284BFB6002E0FB681B68FB60FB681B68F5
:102410007A689A42F7D8FB68BB60FB685B68BA6869
:1024200013447A689A4208D1FB685A687B685B68F3
:102430001A44FB685A60FB687B607B68BB607B6802
:102440005B68BA681A44FB681B689A4218D1FB683B
:102450001A68154B1B689A420DD07B685A68FB6856
:102460001B685B681A447B685A60FB681B681A68C3
:102470007B681A6008E00C4B1A687B681A6003E0FE
:10248000FB681A687B681A60FA687B689A4202D017
:10249000FB687A681A6000BF1437BD465DF8047B9C
:1024A000704700BFB82D0120C02D012080B500AFBE
:1024B000094B5B6903F04003002B0AD0064B5B69B4
:1024C000054A43F04003536101222021034800F0F4
:1024D000A9FA00BF80BD00BF003C014000080240D7
:1024E00080B582B002AF00F02BF800F087F800F062
:1024F000EBF800F0AFF80C4B01930423009300239A
:1025000080220A490A48FEF7F3F90A4B0193042393
:1025100000930023802208490848FEF7E9F9FEF7F6
:1025200053FB00BFFDE700BFD42D0120243000087D
:102530002D270008D82D01202C3000088527000801
:1025400080B588B000AF3B1D00221A605A609A60C7
:10255000DA601A615A610023FB611A4B1B6B194A3E
:1025600043F004031363174B1B6B03F00403FB617D
:102570000123BB600023FB6020237B6000233B61C1
:1025800000237B613B1D19460F4800F064FA3B1D98
:1025900018220021184600F0F2FC0023BB60402303
:1025A0007B6002233B613B1D1946074800F053FA4C
:1025B0003B1D18220021184600F0E1FC00BF203727
:1025C000BD4680BD003802400008024080B483B0A0
:1025D00000AF78607A6813465B0013449B007B6011
:1025E00000BF7B685A1E7A60002BFAD100BF00BF83
:1025F0000C37BD465DF8047B7047000080B582B0A3
:1026000000AF00233B6000237B60114B5B6C104AE2
:1026100043F4804353640E4B5B6C03F480437B6054
:102620000621022000F004F901233B7006237B7091
:102630000023FB700823BB703B46184600F02CF9C2
:10264000172000F0B9F900BF0837BD4680BD00BFB4
:102650000038024080B582B000AF00237B60174B8A
:102660001B6C164A43F400331364144B1B6C03F4C5
:1026700000337B60124B134A1A60114B4FF4165211
:102680005A600F4B00229A610D4B0822DA610C4B05
:1026900000229A600A4B00221A61094B00225A61FB
:1026A000074B0022DA60064800F032FB01210448A3
:1026B00000F02FFC00BF0837BD4680BD0038024047
:1026C000DC2D01200044004080B588B000AF3B1DE8
:1026D00000221A605A609A60DA601A615A61002317
:1026E000FB61104B1B6B0F4A43F0010313630D4B4F
:1026F0001B6B03F00103FB610C237B600223BB60B7
:102700000023FB6003237B6100233B610723BB6144
:102710003B1D1946044800F09EF900BF2037BD4616
:1027200080BD00BF003802400000024090B587B075
:1027300000AF78600F4B07F108040FCB07C423806C
:102740000D4B1B68012BFBD10C4B00221A6007F1CB
:1027500008030E2219460A4800F090FB4CF2503054
:10276000FFF734FF054B01221A60034B00221A6069
:10277000E6E700BF34300008080000200C0000200D
:10278000DC2D012090B587B000AF78600F4B07F1CA
:1027900008040FCB07C423700D4B1B68012BFBD122
:1027A0000C4B00221A6007F108030D2219460A4853
:1027B00000F064FB4CF25030FFF708FF054B01229C
:1027C0001A60034B00221A60E6E700BF443000089D
:1027D0000C00002008000020DC2D01200D4885465B
:1027E000AFF300800C480D490D4A002302E0D45895
:1027F000C4500433C4188C42F9D30A4A0A4C00234B
:1028000001E013600432A242FBD300F0C1FBFFF7EA
:1028100067FEFEE700800120000000201400002079
:102820007430000814000020FC2D0120FEE7000099
:1028300080B485B000AF03460A46FB711346BB71F6
:10284000144ABB799B08DBB2023352F82330FB6099
:10285000BB7903F003039B000F2202FA03F3DB436F
:10286000FA681340FB60FA79BB7903F003039B001D
:1028700002FA03F3FB600749BB799B08DBB2023322
:10288000FA6841F8232000BF1437BD465DF8047B89
:10289000704700BF0038014080B485B000AF786059
:1028A000444BFB60434B1A687B685B7819460123F5
:1028B0008B40DB433F4913400B603E4B5A687B68BB
:1028C0005B78194601238B40DB433A4913404B6048
:1028D0007B681B78002B53D07B68DB781A46FB683B
:1028E0001344FB60FB681A687B685B781946012318
:1028F0008B401946FB680A431A602E4BFB602D4B38
:102900009A687B685B78194601238B40DB43294931
:1029100013408B60274BDA687B685B78194601238C
:102920008B40DB4323491340CB607B689B78102BA3
:1029300014D1204B9A687B685B78194601238B4041
:102940001C4913438B601B4BDA687B685B78194624
:1029500001238B4017491343CB6025E07B689B78AC
:102960001A46FB681344FB60FB681A687B685B7857
:10297000194601238B401946FB680A431A6013E08D
:102980000C4BBB607B68DB781A46BB681344BB60AA
:10299000BB681A687B685B78194601238B40DB4370
:1029A0001946BB680A401A6000BF1437BD465DF87F
:1029B000047B7047003C014080B485B000AF034603
:1029C000FB710023FB60FB795B09DBB29B0003F129
:1029D000604303F561431B68FB60FB7903F01F0351
:1029E000012202FA03F3DB431A46FB681340FB6043
:1029F000FB7903F01F03012202FA03F31A46FB6876
:102A00001343FB60FB795B09DBB29B0003F160437E
:102A100003F56143FA681A6000BF1437BD465DF8DC
:102A2000047B704780B483B000AF78600B467B8036
:102A300013467B707B78012B03D17A887B689A617F
:102A400003E07B881A047B689A6100BF0C37BD469F
:102A50005DF8047B704780B487B000AF7860396060
:102A600000233B610023FB6000237B619FE0012288
:102A70007B6902FA03F33B613B681B683A691340C8
:102A8000FB603A69FB689A4240F08E807B681B6865
:102A9000BB607B695B00032202FA03F3DB43BA6885
:102AA0001340BB603B685A687B695B0002FA03F322
:102AB000BA681343BB607B68BA681A603B685B689E
:102AC000012B03D03B685B68022B2DD17B685B68D0
:102AD000BB6001227B6902FA03F3DB43BA6813404F
:102AE000BB603B689A687B6902FA03F3BA681343D8
:102AF000BB607B68BA685A607B689B68BB607B6917
:102B00005B00032202FA03F3DB43BA681340BB60A5
:102B10003B681A697B695B0002FA03F3BA681343E6
:102B2000BB607B68BA689A607B68DB68BB607B6966
:102B30005B00032202FA03F3DB43BA681340BB6075
:102B40003B68DA687B695B0002FA03F3BA681343F7
:102B5000BB607B68BA68DA603B685B68022B23D194
:102B60007B69DA087B68083253F82230BB607B69E6
:102B700003F007039B000F2202FA03F3DB43BA685A
:102B80001340BB603B685A697B6903F007039B00F5
:102B900002FA03F3BA681343BB607B69DA087B6807
:102BA0000832B96843F822107B6901337B617B6985
:102BB0000F2B7FF65CAF00BF00BF1C37BD465DF832
:102BC000047B704780B483B000AF0023FB71104BCF
:102BD0009B689B08DBB203F00303FB71FB79002BBE
:102BE00002D0012B04D007E00A4B0B4A1A6006E022
:102BF000084B0A4A1A6002E0064B074A1A60054B66
:102C00001B6818460C37BD465DF8047B704700BF53
:102C100000380240100000200024F40000127A0066
:102C200080B584B000AF0023FB600023BB600023AD
:102C3000FB710023BB71FFF7C5FFB8600A4B9B68AF
:102C40001B09DBB203F00F03FB71FB79074AD35C6E
:102C5000BB71BB79BA6822FA03F3FB60FB681846C4
:102C60001037BD4680BD00BF003802405430000818
:102C700080B584B000AF0023FB600023BB6000235D
:102C8000FB710023BB71FFF7CBFFB8600A4B9B6859
:102C90009B0ADBB203F00703FB71FB79074AD35CA5
:102CA000BB71BB79BA6822FA03F3FB60FB68184674
:102CB0001037BD4680BD00BF0038024064300008B8
:102CC00080B584B000AF0023FB600023BB6000230D
:102CD000FB710023BB71FFF7A3FFB8600A4B9B6831
:102CE0005B0BDBB203F00703FB71FB79074AD35C94
:102CF000BB71BB79BA6822FA03F3FB60FB68184624
:102D00001037BD4680BD00BF003802406430000867
:102D100080B588B000AF78600023FB610023BB6101
:102D200000237B6100233B610023FB607B681B6801
:102D3000DB68BB607B689A687B68DB681A437B68EA
:102D4000DB691A437B681B691343BA681343BB6092
:102D50007B681B68BA68DA607B681B681B69BB60AC
:102D6000BB6823F44053BB607B685B69BA6813435C
:102D7000BB607B681B68BA681A617B681B685B690B
:102D8000BB607B689B69BA681343BB607B681B6848
:102D9000BA685A617B681B68354A934204D07B68E5
:102DA0001B68344A934203D1FFF78AFFF86102E0BF
:102DB000FFF75EFFF8617B689B68B3F5004F23D196
:102DC000FA6913469B0013449A001A447B685B68B7
:102DD0005B00B2FBF3F33B613B69274AA2FB032391
:102DE0005B09BB61BB69642202FB03F33A69D31A36
:102DF0007B617B69DB0032331F4AA2FB03235B0943
:102E000003F007037B6122E0FA6913469B00134439
:102E10009A001A447B685B689B00B2FBF3F33B614A
:102E20003B69154AA2FB03235B09BB61BB696422B2
:102E300002FB03F33A69D31A7B617B691B013233CE
:102E40000D4AA2FB03235B0903F007037B61BB6907
:102E50001B01FA681343FB60FA687B691343FB604C
:102E60007B681B68FA689A6000BF2037BD4680BD4A
:102E700000100140001401401F85EB5180B586B061
:102E800000AFF860B9601346FB80FB68DB68B3F500
:102E9000805F06D1FB681B69002B02D1BB687B6198
:102EA00001E000237B6124E000BF8021F86800F08E
:102EB00050F80346002BF8D07B69002B0BD1BB6880
:102EC0001A78FB681B685A60BB680133BB60FB88DB
:102ED000013BFB800DE07B691B881A46FB681B6881
:102EE000C2F308025A607B6902337B61FB88023BB4
:102EF000FB80FB88002BD7D100BF4021F86800F091
:102F000028F80346002BF8D000BF00BF1837BD4695
:102F100080BD80B483B000AF78600B46FB70FB7857
:102F2000012B08D17B681B68DA687B681B6842F458
:102F30000052DA6007E07B681B68DA687B681B6810
:102F400022F40052DA6000BF0C37BD465DF8047B06
:102F5000704780B483B000AF78600B467B807B689D
:102F60001B681A687B881340002B14BF01230023C1
:102F7000DBB218460C37BD465DF8047B704702444F
:102F80000346934200D1704703F8011BF9E70000A4
:102F900070B50D4D0D4C641BA4100026A64209D13E
:102FA0000B4D0C4C00F026F8641BA4100026A64222
:102FB00005D170BD55F8043B98470136EEE755F84A
:102FC000043B98470136F2E76C3000086C3000088B
:102FD0006C300008703000080A44914200F1FF3361
:102FE00000D1704710B511F8014B03F8014F914221
:102FF000F9D110BDF8B500BFF8BC08BC9E467047BB
:0C300000F8B500BFF8BC08BC9E46704745
:10300C0049444C4500000000546D72205376630017
:10301C00546D7251000000005461736B310000005C
:10302C005461736B32000000445553414E2054419F
:10303C004449430D0A0000004544494E20445A457A
:10304C004B4F0D0A000000000000000000000000C3
:10305C000102030406070809000000000102030432
:04306C00C501000892
:04307000A1010008B2
:1030740004000000AAAAAAAA01000000010000009E
:043084000024F40030
:04000005080027DDEB
:00000001FF
