:020000040800F2
:1000000000800120C5020008150300081503000840
:100010001503000815030008150300080000000080
:1000200000000000000000000000000015030008B0
:100030001503000800000000150300081503000860
:100040000000000015030008150300081503000850
:100050001503000815030008150300081503000820
:100060001503000815030008150300081503000810
:100070001503000815030008150300081503000800
:100080001503000815030008150300080000000010
:100090000000000000000000000000001503000840
:1000A00015030008150300081503000815030008D0
:1000B00015030008150300081503000815030008C0
:1000C00015030008150300081503000815030008B0
:1000D00015030008150300081503000800000000C0
:1000E00015030008150300081503000800000000B0
:1000F00000000000000000000000000015030008E0
:10010000000000001503000815030008150300088F
:1001100000000000000000000000000000000000DF
:10012000150300081503000815030008150300084F
:10013000150300080000000000000000000000009F
:10014000000000000000000000000000150300088F
:10015000150300081503000815030008150300081F
:10016000150300081503000800000000000000004F
:10017000000000000000000000000000000000007F
:10018000000000000000000000000000000000006F
:04019000150300084B
:1001940010B5054C237833B9044B13B10448AFF3BD
:1001A40000800123237010BD000000200000000027
:1001B400B807000808B5034B1BB103490348AFF364
:1001C400008008BD0000000004000020B8070008FB
:1001D40080B500AF00F042F800F004F800231846A0
:1001E40080BD000080B582B000AF00237B60174B58
:1001F4001B6C164A43F400131364144B1B6C03F476
:1002040000137B60124B134A1A60114B4FF4806247
:100214009A600F4B4FF400425A610D4B4FF48042E9
:100224001A610B4B0C4A5A60094B8022DA60084B66
:1002340000229A61064800F023F90121044800F0E5
:10024400FDF900BF0837BD4680BD00BF003802403D
:100254001C00002000540040A086010080B588B036
:1002640000AF3B1D00221A605A609A60DA601A617E
:100274005A610023FB61104B1B6B0F4A43F00203CE
:1002840013630D4B1B6B03F00203FB61C0237B6004
:100294000223BB600023FB6003237B6100233B61DB
:1002A4000423BB613B1D1946044800F032F800BF2B
:1002B4002037BD4680BD00BF003802400004024024
:1002C4000D488546AFF300800C480D490D4A0023C4
:1002D40002E0D458C4500433C4188C42F9D30A4AF7
:1002E4000A4C002301E013600432A242FBD300F065
:1002F4003DFAFFF76DFFFEE70080012000000020BB
:1003040000000020F0070008000000203800002052
:10031400FEE780B487B000AF7860396000233B61AA
:100324000023FB6000237B619FE001227B6902FACA
:1003340003F33B613B681B683A691340FB603A690D
:10034400FB689A4240F08E807B681B68BB607B69C7
:100354005B00032202FA03F3DB43BA681340BB6079
:100364003B685A687B695B0002FA03F3BA6813437B
:10037400BB607B68BA681A603B685B68012B03D07A
:100384003B685B68022B2DD17B685B68BB600122F4
:100394007B6902FA03F3DB43BA681340BB603B6832
:1003A4009A687B6902FA03F3BA681343BB607B68FB
:1003B400BA685A607B689B68BB607B695B000322F8
:1003C40002FA03F3DB43BA681340BB603B681A6963
:1003D4007B695B0002FA03F3BA681343BB607B6872
:1003E400BA689A607B68DB68BB607B695B00032248
:1003F40002FA03F3DB43BA681340BB603B68DA6874
:100404007B695B0002FA03F3BA681343BB607B6841
:10041400BA68DA603B685B68022B23D17B69DA082F
:100424007B68083253F82230BB607B6903F0070312
:100434009B000F2202FA03F3DB43BA681340BB604C
:100444003B685A697B6903F007039B0002FA03F3D4
:10045400BA681343BB607B69DA087B680832B96801
:1004640043F822107B6901337B617B690F2B7FF694
:100474005CAF00BF00BF1C37BD4680BC70470000A6
:1004840080B586B000AF78600023FB6000F046F9C9
:10049400F8607B685B68644A934207D8FB68634AE8
:1004A40093428CBF01230023DBB206E0FB68604A61
:1004B40093428CBF01230023DBB2002B00F0AF80FA
:1004C40000237B610023BB607B681B681B687B6126
:1004D4007B689A687B68DB6813437A6913437B61A2
:1004E4007B681B687A691A60FB68524AA2FB032383
:1004F4009B0CBB607B681B685B687B617A69BB682B
:1005040013437B617B681B687A695A607B681B684C
:100514009B687B617B681B697A6913437B617B6899
:100524001B69B3F5804F06D17B689B695B007A69D0
:1005340013437B6104E07B689B697A6913437B61A5
:100544007B681B687A699A6000237B827B681B68DE
:10055400DB697B617B685B68334A93420FD800F0A8
:10056400DDF802467B685B685B00B2FBF3F37B82D9
:100574007B8AC3F30B037A6913437B6128E07B68AE
:100584005B697A6913437B617B685B69B3F5004FF0
:100594000BD100F0C3F801467B685A6813465B0030
:1005A4001344B1FBF3F37B820CE000F0B7F801468F
:1005B4007B685A6813469B0013449A001344B1FBAA
:1005C400F3F37B827B8AC3F30B037A6913437B6166
:1005D4007B681B687A69DA617B685B68124A9342BC
:1005E40009D800F09BF80346124AA2FB03239B0C94
:1005F40001337B610DE000F091F803464FF49672ED
:1006040002FB03F35B0A0C4AA2FB0323DB0901335D
:100614007B617B681B687A6902F03F021A6200BF43
:100624001837BD4680BD00BFA086010080841E002F
:1006340000093D0083DE1B43834B040080B483B078
:1006440000AF78600B46FB70FB78012B08D17B6808
:100654001B681A687B681B6842F001021A6007E095
:100664007B681B681A687B681B6822F001021A60A9
:1006740000BF0C37BD4680BC7047000080B483B017
:1006840000AF00237B600023FB700D4B9B689B082D
:10069400DBB203F00303FB70FB78002B02D0012BC9
:1006A40003D005E0074B7B6004E0074B7B6001E06F
:1006B400044B7B607B6818460C37BD4680BC704792
:1006C400003802400024F40000127A0080B584B09F
:1006D40000AF0023FB600023BB600023FB710023F9
:1006E400BB71FFF7CBFFB8600A4B9B681B09DBB2F9
:1006F40003F00F03FB71FB79074AD35CBB71BB7931
:10070400BA6822FA03F3FB60FB6818461037BD464B
:1007140080BD00BF00380240D007000880B584B017
:1007240000AF0023FB600023BB600023FB710023A8
:10073400BB71FFF7CBFFB8600A4B9B689B0ADBB227
:1007440003F00703FB71FB79074AD35CBB71BB79E8
:10075400BA6822FA03F3FB60FB6818461037BD46FB
:1007640080BD00BF00380240E007000870B50D4DA1
:100774000D4C641BA4100026A64209D10B4D0C4C51
:1007840000F018F8641BA4100026A64205D170BD21
:1007940055F8043B98470136EEE755F8043B984773
:1007A4000136F2E7E8070008E8070008E807000850
:1007B400EC070008F8B500BFF8BC08BC9E467047BB
:0C07C400F8B500BFF8BC08BC9E467047AA
:1007D00000000000000000000102030406070809F1
:0807E000000000000102030407
:0407E800B90100084B
:0407EC00950100086B
:04000005080002C528
:00000001FF
